{
  "abi": [
    {
      "type": "constructor",
      "inputs": [
        {
          "name": "initialOwner",
          "type": "address",
          "internalType": "address"
        },
        {
          "name": "initialTreasury",
          "type": "address",
          "internalType": "address"
        }
      ],
      "stateMutability": "nonpayable"
    },
    {
      "type": "function",
      "name": "distribute",
      "inputs": [
        {
          "name": "currency",
          "type": "address",
          "internalType": "address"
        },
        {
          "name": "totalAmount",
          "type": "uint256",
          "internalType": "uint256"
        },
        {
          "name": "beneficiaries",
          "type": "address[]",
          "internalType": "address[]"
        },
        {
          "name": "rewards",
          "type": "uint256[]",
          "internalType": "uint256[]"
        }
      ],
      "outputs": [],
      "stateMutability": "nonpayable"
    },
    {
      "type": "function",
      "name": "isCurrencyWhitelisted",
      "inputs": [
        {
          "name": "",
          "type": "address",
          "internalType": "address"
        }
      ],
      "outputs": [
        {
          "name": "",
          "type": "bool",
          "internalType": "bool"
        }
      ],
      "stateMutability": "view"
    },
    {
      "type": "function",
      "name": "owner",
      "inputs": [],
      "outputs": [
        {
          "name": "",
          "type": "address",
          "internalType": "address"
        }
      ],
      "stateMutability": "view"
    },
    {
      "type": "function",
      "name": "renounceOwnership",
      "inputs": [],
      "outputs": [],
      "stateMutability": "nonpayable"
    },
    {
      "type": "function",
      "name": "setTreasury",
      "inputs": [
        {
          "name": "newTreasury",
          "type": "address",
          "internalType": "address"
        }
      ],
      "outputs": [],
      "stateMutability": "nonpayable"
    },
    {
      "type": "function",
      "name": "transferOwnership",
      "inputs": [
        {
          "name": "newOwner",
          "type": "address",
          "internalType": "address"
        }
      ],
      "outputs": [],
      "stateMutability": "nonpayable"
    },
    {
      "type": "function",
      "name": "treasury",
      "inputs": [],
      "outputs": [
        {
          "name": "",
          "type": "address",
          "internalType": "address"
        }
      ],
      "stateMutability": "view"
    },
    {
      "type": "function",
      "name": "whitelistCurrency",
      "inputs": [
        {
          "name": "currency",
          "type": "address",
          "internalType": "address"
        },
        {
          "name": "status",
          "type": "bool",
          "internalType": "bool"
        }
      ],
      "outputs": [],
      "stateMutability": "nonpayable"
    },
    {
      "type": "event",
      "name": "Distributed",
      "inputs": [
        {
          "name": "payer",
          "type": "address",
          "indexed": true,
          "internalType": "address"
        },
        {
          "name": "treasury",
          "type": "address",
          "indexed": true,
          "internalType": "address"
        },
        {
          "name": "currency",
          "type": "address",
          "indexed": true,
          "internalType": "address"
        },
        {
          "name": "totalAmount",
          "type": "uint256",
          "indexed": false,
          "internalType": "uint256"
        },
        {
          "name": "remainingAmount",
          "type": "uint256",
          "indexed": false,
          "internalType": "uint256"
        },
        {
          "name": "beneficiaries",
          "type": "address[]",
          "indexed": false,
          "internalType": "address[]"
        },
        {
          "name": "rewards",
          "type": "uint256[]",
          "indexed": false,
          "internalType": "uint256[]"
        }
      ],
      "anonymous": false
    },
    {
      "type": "event",
      "name": "OwnershipTransferred",
      "inputs": [
        {
          "name": "previousOwner",
          "type": "address",
          "indexed": true,
          "internalType": "address"
        },
        {
          "name": "newOwner",
          "type": "address",
          "indexed": true,
          "internalType": "address"
        }
      ],
      "anonymous": false
    },
    {
      "type": "error",
      "name": "AddressEmptyCode",
      "inputs": [
        {
          "name": "target",
          "type": "address",
          "internalType": "address"
        }
      ]
    },
    {
      "type": "error",
      "name": "AddressInsufficientBalance",
      "inputs": [
        {
          "name": "account",
          "type": "address",
          "internalType": "address"
        }
      ]
    },
    {
      "type": "error",
      "name": "FailedInnerCall",
      "inputs": []
    },
    {
      "type": "error",
      "name": "OwnableInvalidOwner",
      "inputs": [
        {
          "name": "owner",
          "type": "address",
          "internalType": "address"
        }
      ]
    },
    {
      "type": "error",
      "name": "OwnableUnauthorizedAccount",
      "inputs": [
        {
          "name": "account",
          "type": "address",
          "internalType": "address"
        }
      ]
    },
    {
      "type": "error",
      "name": "SafeERC20FailedOperation",
      "inputs": [
        {
          "name": "token",
          "type": "address",
          "internalType": "address"
        }
      ]
    }
  ],
  "bytecode": {
    "object": "0x608060405234801561001057600080fd5b50604051610b07380380610b0783398101604081905261002f916100fa565b816001600160a01b03811661005e57604051631e4fbdf760e01b81526000600482015260240160405180910390fd5b6100678161008e565b50600180546001600160a01b0319166001600160a01b03929092169190911790555061012d565b600080546001600160a01b038381166001600160a01b0319831681178455604051919092169283917f8be0079c531659141344cd1fd0a4f28419497f9722a3daafe3b4186f6b6457e09190a35050565b80516001600160a01b03811681146100f557600080fd5b919050565b6000806040838503121561010d57600080fd5b610116836100de565b9150610124602084016100de565b90509250929050565b6109cb8061013c6000396000f3fe608060405234801561001057600080fd5b50600436106100885760003560e01c80638c3bfb1c1161005b5780638c3bfb1c1461010d5780638da5cb5b14610120578063f0f4426014610131578063f2fde38b1461014457600080fd5b80632568a51a1461008d57806343b938c5146100a257806361d027b3146100da578063715018a614610105575b600080fd5b6100a061009b366004610734565b610157565b005b6100c56100b0366004610817565b60026020526000908152604090205460ff1681565b60405190151581526020015b60405180910390f35b6001546100ed906001600160a01b031681565b6040516001600160a01b0390911681526020016100d1565b6100a0610311565b6100a061011b366004610840565b610325565b6000546001600160a01b03166100ed565b6100a061013f366004610817565b610358565b6100a0610152366004610817565b610382565b80518251146101a65760405162461bcd60e51b8152602060048201526016602482015275185c9c985e481b195b99dd1a081b9bdd08195c5d585b60521b60448201526064015b60405180910390fd5b6001600160a01b03841660009081526002602052604090205460ff1661020e5760405162461bcd60e51b815260206004820152601860248201527f63757272656e6379206e6f742077686974656c69737465640000000000000000604482015260640161019d565b8260005b835181101561029c5761026d3385838151811061023157610231610877565b602002602001015185848151811061024b5761024b610877565b6020026020010151896001600160a01b03166103c0909392919063ffffffff16565b82818151811061027f5761027f610877565b602002602001015182610292919061088d565b9150600101610212565b506001546102b9906001600160a01b0387811691339116846103c0565b6001546040516001600160a01b0380881692169033907fa357131e3991af7f01c975eb0b10d601edc5cb6c91b13c4e5502c6c3914763979061030290899087908a908a906108ae565b60405180910390a45050505050565b610319610420565b610323600061044d565b565b61032d610420565b6001600160a01b03919091166000908152600260205260409020805460ff1916911515919091179055565b610360610420565b600180546001600160a01b0319166001600160a01b0392909216919091179055565b61038a610420565b6001600160a01b0381166103b457604051631e4fbdf760e01b81526000600482015260240161019d565b6103bd8161044d565b50565b604080516001600160a01b0385811660248301528416604482015260648082018490528251808303909101815260849091019091526020810180516001600160e01b03166323b872dd60e01b17905261041a90859061049d565b50505050565b6000546001600160a01b031633146103235760405163118cdaa760e01b815233600482015260240161019d565b600080546001600160a01b038381166001600160a01b0319831681178455604051919092169283917f8be0079c531659141344cd1fd0a4f28419497f9722a3daafe3b4186f6b6457e09190a35050565b60006104b26001600160a01b03841683610505565b905080516000141580156104d75750808060200190518101906104d59190610949565b155b1561050057604051635274afe760e01b81526001600160a01b038416600482015260240161019d565b505050565b60606105138383600061051c565b90505b92915050565b6060814710156105415760405163cd78605960e01b815230600482015260240161019d565b600080856001600160a01b0316848660405161055d9190610966565b60006040518083038185875af1925050503d806000811461059a576040519150601f19603f3d011682016040523d82523d6000602084013e61059f565b606091505b50915091506105af8683836105bb565b925050505b9392505050565b6060826105d0576105cb82610617565b6105b4565b81511580156105e757506001600160a01b0384163b155b1561061057604051639996b31560e01b81526001600160a01b038516600482015260240161019d565b50806105b4565b8051156106275780518082602001fd5b604051630a12f52160e11b815260040160405180910390fd5b80356001600160a01b038116811461065757600080fd5b919050565b634e487b7160e01b600052604160045260246000fd5b604051601f8201601f1916810167ffffffffffffffff8111828210171561069b5761069b61065c565b604052919050565b600067ffffffffffffffff8211156106bd576106bd61065c565b5060051b60200190565b600082601f8301126106d857600080fd5b81356106eb6106e6826106a3565b610672565b8082825260208201915060208360051b86010192508583111561070d57600080fd5b602085015b8381101561072a578035835260209283019201610712565b5095945050505050565b6000806000806080858703121561074a57600080fd5b61075385610640565b935060208501359250604085013567ffffffffffffffff81111561077657600080fd5b8501601f8101871361078757600080fd5b80356107956106e6826106a3565b8082825260208201915060208360051b8501019250898311156107b757600080fd5b6020840193505b828410156107e0576107cf84610640565b8252602093840193909101906107be565b9450505050606085013567ffffffffffffffff8111156107ff57600080fd5b61080b878288016106c7565b91505092959194509250565b60006020828403121561082957600080fd5b61051382610640565b80151581146103bd57600080fd5b6000806040838503121561085357600080fd5b61085c83610640565b9150602083013561086c81610832565b809150509250929050565b634e487b7160e01b600052603260045260246000fd5b8181038181111561051657634e487b7160e01b600052601160045260246000fd5b6000608082018683528560208401526080604084015280855180835260a08501915060208701925060005b818110156109005783516001600160a01b03168352602093840193909201916001016108d9565b505083810360608501528451808252602091820192509085019060005b8181101561093b57825184526020938401939092019160010161091d565b509198975050505050505050565b60006020828403121561095b57600080fd5b81516105b481610832565b6000825160005b81811015610987576020818601810151858301520161096d565b50600092019182525091905056fea264697066735822122060d9671921087b9b3fe2c0ac74285c0573be06df679141e0fff573771ed907b364736f6c634300081a0033",
    "linkReferences": {}
  },
  "methodIdentifiers": {
    "distribute(address,uint256,address[],uint256[])": "2568a51a",
    "isCurrencyWhitelisted(address)": "43b938c5",
    "owner()": "8da5cb5b",
    "renounceOwnership()": "715018a6",
    "setTreasury(address)": "f0f44260",
    "transferOwnership(address)": "f2fde38b",
    "treasury()": "61d027b3",
    "whitelistCurrency(address,bool)": "8c3bfb1c"
  },
  "id": 38
}