{
  "abi": [
    {
      "type": "constructor",
      "inputs": [
        {
          "name": "name",
          "type": "string",
          "internalType": "string"
        },
        {
          "name": "symbol",
          "type": "string",
          "internalType": "string"
        },
        {
          "name": "initialOwner",
          "type": "address",
          "internalType": "address"
        },
        {
          "name": "maxSupply",
          "type": "uint256",
          "internalType": "uint256"
        },
        {
          "name": "baseUri",
          "type": "string",
          "internalType": "string"
        }
      ],
      "stateMutability": "nonpayable"
    },
    {
      "type": "function",
      "name": "MAX_SUPPLY",
      "inputs": [],
      "outputs": [
        {
          "name": "",
          "type": "uint256",
          "internalType": "uint256"
        }
      ],
      "stateMutability": "view"
    },
    {
      "type": "function",
      "name": "approve",
      "inputs": [
        {
          "name": "to",
          "type": "address",
          "internalType": "address"
        },
        {
          "name": "tokenId",
          "type": "uint256",
          "internalType": "uint256"
        }
      ],
      "outputs": [],
      "stateMutability": "nonpayable"
    },
    {
      "type": "function",
      "name": "balanceOf",
      "inputs": [
        {
          "name": "owner",
          "type": "address",
          "internalType": "address"
        }
      ],
      "outputs": [
        {
          "name": "",
          "type": "uint256",
          "internalType": "uint256"
        }
      ],
      "stateMutability": "view"
    },
    {
      "type": "function",
      "name": "batchMint",
      "inputs": [
        {
          "name": "tos",
          "type": "address[]",
          "internalType": "address[]"
        }
      ],
      "outputs": [],
      "stateMutability": "nonpayable"
    },
    {
      "type": "function",
      "name": "getApproved",
      "inputs": [
        {
          "name": "tokenId",
          "type": "uint256",
          "internalType": "uint256"
        }
      ],
      "outputs": [
        {
          "name": "",
          "type": "address",
          "internalType": "address"
        }
      ],
      "stateMutability": "view"
    },
    {
      "type": "function",
      "name": "isApprovedForAll",
      "inputs": [
        {
          "name": "owner",
          "type": "address",
          "internalType": "address"
        },
        {
          "name": "operator",
          "type": "address",
          "internalType": "address"
        }
      ],
      "outputs": [
        {
          "name": "",
          "type": "bool",
          "internalType": "bool"
        }
      ],
      "stateMutability": "view"
    },
    {
      "type": "function",
      "name": "mint",
      "inputs": [
        {
          "name": "to",
          "type": "address",
          "internalType": "address"
        }
      ],
      "outputs": [],
      "stateMutability": "nonpayable"
    },
    {
      "type": "function",
      "name": "name",
      "inputs": [],
      "outputs": [
        {
          "name": "",
          "type": "string",
          "internalType": "string"
        }
      ],
      "stateMutability": "view"
    },
    {
      "type": "function",
      "name": "owner",
      "inputs": [],
      "outputs": [
        {
          "name": "",
          "type": "address",
          "internalType": "address"
        }
      ],
      "stateMutability": "view"
    },
    {
      "type": "function",
      "name": "ownerOf",
      "inputs": [
        {
          "name": "tokenId",
          "type": "uint256",
          "internalType": "uint256"
        }
      ],
      "outputs": [
        {
          "name": "",
          "type": "address",
          "internalType": "address"
        }
      ],
      "stateMutability": "view"
    },
    {
      "type": "function",
      "name": "renounceOwnership",
      "inputs": [],
      "outputs": [],
      "stateMutability": "nonpayable"
    },
    {
      "type": "function",
      "name": "safeTransferFrom",
      "inputs": [
        {
          "name": "from",
          "type": "address",
          "internalType": "address"
        },
        {
          "name": "to",
          "type": "address",
          "internalType": "address"
        },
        {
          "name": "tokenId",
          "type": "uint256",
          "internalType": "uint256"
        }
      ],
      "outputs": [],
      "stateMutability": "nonpayable"
    },
    {
      "type": "function",
      "name": "safeTransferFrom",
      "inputs": [
        {
          "name": "from",
          "type": "address",
          "internalType": "address"
        },
        {
          "name": "to",
          "type": "address",
          "internalType": "address"
        },
        {
          "name": "tokenId",
          "type": "uint256",
          "internalType": "uint256"
        },
        {
          "name": "data",
          "type": "bytes",
          "internalType": "bytes"
        }
      ],
      "outputs": [],
      "stateMutability": "nonpayable"
    },
    {
      "type": "function",
      "name": "setApprovalForAll",
      "inputs": [
        {
          "name": "operator",
          "type": "address",
          "internalType": "address"
        },
        {
          "name": "approved",
          "type": "bool",
          "internalType": "bool"
        }
      ],
      "outputs": [],
      "stateMutability": "nonpayable"
    },
    {
      "type": "function",
      "name": "setBaseUri",
      "inputs": [
        {
          "name": "baseUri",
          "type": "string",
          "internalType": "string"
        }
      ],
      "outputs": [],
      "stateMutability": "nonpayable"
    },
    {
      "type": "function",
      "name": "setMaxSupply",
      "inputs": [
        {
          "name": "maxSupply",
          "type": "uint256",
          "internalType": "uint256"
        }
      ],
      "outputs": [],
      "stateMutability": "nonpayable"
    },
    {
      "type": "function",
      "name": "supportsInterface",
      "inputs": [
        {
          "name": "interfaceId",
          "type": "bytes4",
          "internalType": "bytes4"
        }
      ],
      "outputs": [
        {
          "name": "",
          "type": "bool",
          "internalType": "bool"
        }
      ],
      "stateMutability": "view"
    },
    {
      "type": "function",
      "name": "symbol",
      "inputs": [],
      "outputs": [
        {
          "name": "",
          "type": "string",
          "internalType": "string"
        }
      ],
      "stateMutability": "view"
    },
    {
      "type": "function",
      "name": "tokenURI",
      "inputs": [
        {
          "name": "tokenId",
          "type": "uint256",
          "internalType": "uint256"
        }
      ],
      "outputs": [
        {
          "name": "",
          "type": "string",
          "internalType": "string"
        }
      ],
      "stateMutability": "view"
    },
    {
      "type": "function",
      "name": "totalSupply",
      "inputs": [],
      "outputs": [
        {
          "name": "",
          "type": "uint256",
          "internalType": "uint256"
        }
      ],
      "stateMutability": "view"
    },
    {
      "type": "function",
      "name": "transferFrom",
      "inputs": [
        {
          "name": "from",
          "type": "address",
          "internalType": "address"
        },
        {
          "name": "to",
          "type": "address",
          "internalType": "address"
        },
        {
          "name": "tokenId",
          "type": "uint256",
          "internalType": "uint256"
        }
      ],
      "outputs": [],
      "stateMutability": "nonpayable"
    },
    {
      "type": "function",
      "name": "transferOwnership",
      "inputs": [
        {
          "name": "newOwner",
          "type": "address",
          "internalType": "address"
        }
      ],
      "outputs": [],
      "stateMutability": "nonpayable"
    },
    {
      "type": "event",
      "name": "Approval",
      "inputs": [
        {
          "name": "owner",
          "type": "address",
          "indexed": true,
          "internalType": "address"
        },
        {
          "name": "approved",
          "type": "address",
          "indexed": true,
          "internalType": "address"
        },
        {
          "name": "tokenId",
          "type": "uint256",
          "indexed": true,
          "internalType": "uint256"
        }
      ],
      "anonymous": false
    },
    {
      "type": "event",
      "name": "ApprovalForAll",
      "inputs": [
        {
          "name": "owner",
          "type": "address",
          "indexed": true,
          "internalType": "address"
        },
        {
          "name": "operator",
          "type": "address",
          "indexed": true,
          "internalType": "address"
        },
        {
          "name": "approved",
          "type": "bool",
          "indexed": false,
          "internalType": "bool"
        }
      ],
      "anonymous": false
    },
    {
      "type": "event",
      "name": "OwnershipTransferred",
      "inputs": [
        {
          "name": "previousOwner",
          "type": "address",
          "indexed": true,
          "internalType": "address"
        },
        {
          "name": "newOwner",
          "type": "address",
          "indexed": true,
          "internalType": "address"
        }
      ],
      "anonymous": false
    },
    {
      "type": "event",
      "name": "Transfer",
      "inputs": [
        {
          "name": "from",
          "type": "address",
          "indexed": true,
          "internalType": "address"
        },
        {
          "name": "to",
          "type": "address",
          "indexed": true,
          "internalType": "address"
        },
        {
          "name": "tokenId",
          "type": "uint256",
          "indexed": true,
          "internalType": "uint256"
        }
      ],
      "anonymous": false
    },
    {
      "type": "error",
      "name": "ERC721IncorrectOwner",
      "inputs": [
        {
          "name": "sender",
          "type": "address",
          "internalType": "address"
        },
        {
          "name": "tokenId",
          "type": "uint256",
          "internalType": "uint256"
        },
        {
          "name": "owner",
          "type": "address",
          "internalType": "address"
        }
      ]
    },
    {
      "type": "error",
      "name": "ERC721InsufficientApproval",
      "inputs": [
        {
          "name": "operator",
          "type": "address",
          "internalType": "address"
        },
        {
          "name": "tokenId",
          "type": "uint256",
          "internalType": "uint256"
        }
      ]
    },
    {
      "type": "error",
      "name": "ERC721InvalidApprover",
      "inputs": [
        {
          "name": "approver",
          "type": "address",
          "internalType": "address"
        }
      ]
    },
    {
      "type": "error",
      "name": "ERC721InvalidOperator",
      "inputs": [
        {
          "name": "operator",
          "type": "address",
          "internalType": "address"
        }
      ]
    },
    {
      "type": "error",
      "name": "ERC721InvalidOwner",
      "inputs": [
        {
          "name": "owner",
          "type": "address",
          "internalType": "address"
        }
      ]
    },
    {
      "type": "error",
      "name": "ERC721InvalidReceiver",
      "inputs": [
        {
          "name": "receiver",
          "type": "address",
          "internalType": "address"
        }
      ]
    },
    {
      "type": "error",
      "name": "ERC721InvalidSender",
      "inputs": [
        {
          "name": "sender",
          "type": "address",
          "internalType": "address"
        }
      ]
    },
    {
      "type": "error",
      "name": "ERC721NonexistentToken",
      "inputs": [
        {
          "name": "tokenId",
          "type": "uint256",
          "internalType": "uint256"
        }
      ]
    },
    {
      "type": "error",
      "name": "OwnableInvalidOwner",
      "inputs": [
        {
          "name": "owner",
          "type": "address",
          "internalType": "address"
        }
      ]
    },
    {
      "type": "error",
      "name": "OwnableUnauthorizedAccount",
      "inputs": [
        {
          "name": "account",
          "type": "address",
          "internalType": "address"
        }
      ]
    }
  ],
  "bytecode": {
    "object": "0x6080604052600160085534801561001557600080fd5b50604051611910380380611910833981016040819052610034916101b2565b828585600061004383826102fa565b50600161005082826102fa565b5050506001600160a01b03811661008157604051631e4fbdf760e01b81526000600482015260240160405180910390fd5b61008a816100a7565b506007829055600961009c82826102fa565b5050505050506103b8565b600680546001600160a01b038381166001600160a01b0319831681179093556040519116919082907f8be0079c531659141344cd1fd0a4f28419497f9722a3daafe3b4186f6b6457e090600090a35050565b634e487b7160e01b600052604160045260246000fd5b600082601f83011261012057600080fd5b81516001600160401b03811115610139576101396100f9565b604051601f8201601f19908116603f011681016001600160401b0381118282101715610167576101676100f9565b60405281815283820160200185101561017f57600080fd5b60005b8281101561019e57602081860181015183830182015201610182565b506000918101602001919091529392505050565b600080600080600060a086880312156101ca57600080fd5b85516001600160401b038111156101e057600080fd5b6101ec8882890161010f565b602088015190965090506001600160401b0381111561020a57600080fd5b6102168882890161010f565b604088015190955090506001600160a01b038116811461023557600080fd5b6060870151608088015191945092506001600160401b0381111561025857600080fd5b6102648882890161010f565b9150509295509295909350565b600181811c9082168061028557607f821691505b6020821081036102a557634e487b7160e01b600052602260045260246000fd5b50919050565b601f8211156102f557806000526020600020601f840160051c810160208510156102d25750805b601f840160051c820191505b818110156102f257600081556001016102de565b50505b505050565b81516001600160401b03811115610313576103136100f9565b610327816103218454610271565b846102ab565b6020601f82116001811461035b57600083156103435750848201515b600019600385901b1c1916600184901b1784556102f2565b600084815260208120601f198516915b8281101561038b578785015182556020948501946001909201910161036b565b50848210156103a95786840151600019600387901b60f8161c191681555b50505050600190811b01905550565b611549806103c76000396000f3fe608060405234801561001057600080fd5b50600436106101425760003560e01c806370a08231116100b8578063a22cb4651161007c578063a22cb46514610289578063b88d4fde1461029c578063c87b56dd146102af578063d67b06c1146102c2578063e985e9c5146102d5578063f2fde38b146102e857600080fd5b806370a0823114610242578063715018a6146102555780638da5cb5b1461025d57806395d89b411461026e578063a0bcfc7f1461027657600080fd5b806323b872dd1161010a57806323b872dd146101da57806332cb6b0c146101ed57806342842e0e146101f65780636352211e146102095780636a6278421461021c5780636f8b44b01461022f57600080fd5b806301ffc9a71461014757806306fdde031461016f578063081812fc14610184578063095ea7b3146101af57806318160ddd146101c4575b600080fd5b61015a610155366004610f1d565b6102fb565b60405190151581526020015b60405180910390f35b61017761034d565b6040516101669190610f8a565b610197610192366004610f9d565b6103df565b6040516001600160a01b039091168152602001610166565b6101c26101bd366004610fd2565b610408565b005b6101cc610417565b604051908152602001610166565b6101c26101e8366004610ffc565b61042d565b6101cc60075481565b6101c2610204366004610ffc565b6104bd565b610197610217366004610f9d565b6104dd565b6101c261022a366004611039565b6104e8565b6101c261023d366004610f9d565b61055b565b6101cc610250366004611039565b6105b3565b6101c26105fb565b6006546001600160a01b0316610197565b61017761060f565b6101c26102843660046110f7565b61061e565b6101c2610297366004611140565b610632565b6101c26102aa36600461117c565b61063d565b6101776102bd366004610f9d565b610654565b6101c26102d03660046111f8565b6106bc565b61015a6102e33660046112ac565b610769565b6101c26102f6366004611039565b610797565b60006001600160e01b031982166380ac58cd60e01b148061032c57506001600160e01b03198216635b5e139f60e01b145b8061034757506301ffc9a760e01b6001600160e01b03198316145b92915050565b60606000805461035c906112df565b80601f0160208091040260200160405190810160405280929190818152602001828054610388906112df565b80156103d55780601f106103aa576101008083540402835291602001916103d5565b820191906000526020600020905b8154815290600101906020018083116103b857829003601f168201915b5050505050905090565b60006103ea826107d2565b506000828152600460205260409020546001600160a01b0316610347565b61041382823361080b565b5050565b60006001600854610428919061132f565b905090565b6001600160a01b03821661045c57604051633250574960e11b8152600060048201526024015b60405180910390fd5b6000610469838333610818565b9050836001600160a01b0316816001600160a01b0316146104b7576040516364283d7b60e01b81526001600160a01b0380861660048301526024820184905282166044820152606401610453565b50505050565b6104d88383836040518060200160405280600081525061063d565b505050565b6000610347826107d2565b6104f0610911565b60075460085411156105395760405162461bcd60e51b815260206004820152601260248201527165786365656473206d617820737570706c7960701b6044820152606401610453565b6008805461055891839190600061054f83611342565b9190505561093e565b50565b610563610911565b61056b610417565b81116105ae5760405162461bcd60e51b8152602060048201526012602482015271696e76616c6964206d617820737570706c7960701b6044820152606401610453565b600755565b60006001600160a01b0382166105df576040516322718ad960e21b815260006004820152602401610453565b506001600160a01b031660009081526003602052604090205490565b610603610911565b61060d60006109a3565b565b60606001805461035c906112df565b610626610911565b600961041382826113a2565b6104133383836109f5565b61064884848461042d565b6104b784848484610a94565b606061065f826107d2565b50600061066a610bbd565b9050600081511161068a57604051806020016040528060008152506106b5565b8061069484610bcc565b6040516020016106a5929190611461565b6040516020818303038152906040525b9392505050565b6106c4610911565b600754600182516008546106d89190611490565b6106e2919061132f565b11156107255760405162461bcd60e51b815260206004820152601260248201527165786365656473206d617820737570706c7960701b6044820152606401610453565b60005b815181101561041357610761828281518110610746576107466114a3565b60200260200101516008600081548092919061054f90611342565b600101610728565b6001600160a01b03918216600090815260056020908152604080832093909416825291909152205460ff1690565b61079f610911565b6001600160a01b0381166107c957604051631e4fbdf760e01b815260006004820152602401610453565b610558816109a3565b6000818152600260205260408120546001600160a01b03168061034757604051637e27328960e01b815260048101849052602401610453565b6104d88383836001610c5f565b6000828152600260205260408120546001600160a01b039081169083161561084557610845818486610d65565b6001600160a01b0381161561088357610862600085600080610c5f565b6001600160a01b038116600090815260036020526040902080546000190190555b6001600160a01b038516156108b2576001600160a01b0385166000908152600360205260409020805460010190555b60008481526002602052604080822080546001600160a01b0319166001600160a01b0389811691821790925591518793918516917fddf252ad1be2c89b69c2b068fc378daa952ba7f163c4a11628f55a4df523b3ef91a4949350505050565b6006546001600160a01b0316331461060d5760405163118cdaa760e01b8152336004820152602401610453565b6001600160a01b03821661096857604051633250574960e11b815260006004820152602401610453565b600061097683836000610818565b90506001600160a01b038116156104d8576040516339e3563760e11b815260006004820152602401610453565b600680546001600160a01b038381166001600160a01b0319831681179093556040519116919082907f8be0079c531659141344cd1fd0a4f28419497f9722a3daafe3b4186f6b6457e090600090a35050565b6001600160a01b038216610a2757604051630b61174360e31b81526001600160a01b0383166004820152602401610453565b6001600160a01b03838116600081815260056020908152604080832094871680845294825291829020805460ff191686151590811790915591519182527f17307eab39ab6107e8899845ad3d59bd9653f200f220920489ca2b5937696c31910160405180910390a3505050565b6001600160a01b0383163b156104b757604051630a85bd0160e11b81526001600160a01b0384169063150b7a0290610ad69033908890879087906004016114b9565b6020604051808303816000875af1925050508015610b11575060408051601f3d908101601f19168201909252610b0e918101906114f6565b60015b610b7a573d808015610b3f576040519150601f19603f3d011682016040523d82523d6000602084013e610b44565b606091505b508051600003610b7257604051633250574960e11b81526001600160a01b0385166004820152602401610453565b805181602001fd5b6001600160e01b03198116630a85bd0160e11b14610bb657604051633250574960e11b81526001600160a01b0385166004820152602401610453565b5050505050565b60606009805461035c906112df565b60606000610bd983610dc9565b600101905060008167ffffffffffffffff811115610bf957610bf9611054565b6040519080825280601f01601f191660200182016040528015610c23576020820181803683370190505b5090508181016020015b600019016f181899199a1a9b1b9c1cb0b131b232b360811b600a86061a8153600a8504945084610c2d57509392505050565b8080610c7357506001600160a01b03821615155b15610d35576000610c83846107d2565b90506001600160a01b03831615801590610caf5750826001600160a01b0316816001600160a01b031614155b8015610cc25750610cc08184610769565b155b15610ceb5760405163a9fbf51f60e01b81526001600160a01b0384166004820152602401610453565b8115610d335783856001600160a01b0316826001600160a01b03167f8c5be1e5ebec7d5bd14f71427d1e84f3dd0314c0f7b2291e5b200ac8c7c3b92560405160405180910390a45b505b5050600090815260046020526040902080546001600160a01b0319166001600160a01b0392909216919091179055565b610d70838383610ea1565b6104d8576001600160a01b038316610d9e57604051637e27328960e01b815260048101829052602401610453565b60405163177e802f60e01b81526001600160a01b038316600482015260248101829052604401610453565b60008072184f03e93ff9f4daa797ed6e38ed64bf6a1f0160401b8310610e085772184f03e93ff9f4daa797ed6e38ed64bf6a1f0160401b830492506040015b6d04ee2d6d415b85acef81000000008310610e34576d04ee2d6d415b85acef8100000000830492506020015b662386f26fc100008310610e5257662386f26fc10000830492506010015b6305f5e1008310610e6a576305f5e100830492506008015b6127108310610e7e57612710830492506004015b60648310610e90576064830492506002015b600a83106103475760010192915050565b60006001600160a01b03831615801590610eff5750826001600160a01b0316846001600160a01b03161480610edb5750610edb8484610769565b80610eff57506000828152600460205260409020546001600160a01b038481169116145b949350505050565b6001600160e01b03198116811461055857600080fd5b600060208284031215610f2f57600080fd5b81356106b581610f07565b60005b83811015610f55578181015183820152602001610f3d565b50506000910152565b60008151808452610f76816020860160208601610f3a565b601f01601f19169290920160200192915050565b6020815260006106b56020830184610f5e565b600060208284031215610faf57600080fd5b5035919050565b80356001600160a01b0381168114610fcd57600080fd5b919050565b60008060408385031215610fe557600080fd5b610fee83610fb6565b946020939093013593505050565b60008060006060848603121561101157600080fd5b61101a84610fb6565b925061102860208501610fb6565b929592945050506040919091013590565b60006020828403121561104b57600080fd5b6106b582610fb6565b634e487b7160e01b600052604160045260246000fd5b604051601f8201601f1916810167ffffffffffffffff8111828210171561109357611093611054565b604052919050565b60008067ffffffffffffffff8411156110b6576110b6611054565b50601f8301601f19166020016110cb8161106a565b9150508281528383830111156110e057600080fd5b828260208301376000602084830101529392505050565b60006020828403121561110957600080fd5b813567ffffffffffffffff81111561112057600080fd5b8201601f8101841361113157600080fd5b610eff8482356020840161109b565b6000806040838503121561115357600080fd5b61115c83610fb6565b91506020830135801515811461117157600080fd5b809150509250929050565b6000806000806080858703121561119257600080fd5b61119b85610fb6565b93506111a960208601610fb6565b925060408501359150606085013567ffffffffffffffff8111156111cc57600080fd5b8501601f810187136111dd57600080fd5b6111ec8782356020840161109b565b91505092959194509250565b60006020828403121561120a57600080fd5b813567ffffffffffffffff81111561122157600080fd5b8201601f8101841361123257600080fd5b803567ffffffffffffffff81111561124c5761124c611054565b8060051b61125c6020820161106a565b9182526020818401810192908101908784111561127857600080fd5b6020850194505b838510156112a15761129085610fb6565b82526020948501949091019061127f565b979650505050505050565b600080604083850312156112bf57600080fd5b6112c883610fb6565b91506112d660208401610fb6565b90509250929050565b600181811c908216806112f357607f821691505b60208210810361131357634e487b7160e01b600052602260045260246000fd5b50919050565b634e487b7160e01b600052601160045260246000fd5b8181038181111561034757610347611319565b60006001820161135457611354611319565b5060010190565b601f8211156104d857806000526020600020601f840160051c810160208510156113825750805b601f840160051c820191505b81811015610bb6576000815560010161138e565b815167ffffffffffffffff8111156113bc576113bc611054565b6113d0816113ca84546112df565b8461135b565b6020601f82116001811461140457600083156113ec5750848201515b600019600385901b1c1916600184901b178455610bb6565b600084815260208120601f198516915b828110156114345787850151825560209485019460019092019101611414565b50848210156114525786840151600019600387901b60f8161c191681555b50505050600190811b01905550565b60008351611473818460208801610f3a565b835190830190611487818360208801610f3a565b01949350505050565b8082018082111561034757610347611319565b634e487b7160e01b600052603260045260246000fd5b6001600160a01b03858116825284166020820152604081018390526080606082018190526000906114ec90830184610f5e565b9695505050505050565b60006020828403121561150857600080fd5b81516106b581610f0756fea26469706673582212200167fb81926b2df789596b651e3508f574348965ea4d10138db8f84297a36d8e64736f6c634300081a0033",
    "linkReferences": {}
  },
  "methodIdentifiers": {
    "MAX_SUPPLY()": "32cb6b0c",
    "approve(address,uint256)": "095ea7b3",
    "balanceOf(address)": "70a08231",
    "batchMint(address[])": "d67b06c1",
    "getApproved(uint256)": "081812fc",
    "isApprovedForAll(address,address)": "e985e9c5",
    "mint(address)": "6a627842",
    "name()": "06fdde03",
    "owner()": "8da5cb5b",
    "ownerOf(uint256)": "6352211e",
    "renounceOwnership()": "715018a6",
    "safeTransferFrom(address,address,uint256)": "42842e0e",
    "safeTransferFrom(address,address,uint256,bytes)": "b88d4fde",
    "setApprovalForAll(address,bool)": "a22cb465",
    "setBaseUri(string)": "a0bcfc7f",
    "setMaxSupply(uint256)": "6f8b44b0",
    "supportsInterface(bytes4)": "01ffc9a7",
    "symbol()": "95d89b41",
    "tokenURI(uint256)": "c87b56dd",
    "totalSupply()": "18160ddd",
    "transferFrom(address,address,uint256)": "23b872dd",
    "transferOwnership(address)": "f2fde38b"
  },
  "id": 52
}