{
  "abi": [
    {
      "type": "constructor",
      "inputs": [
        {
          "name": "initialOwner",
          "type": "address",
          "internalType": "address"
        },
        {
          "name": "administrator",
          "type": "address",
          "internalType": "address"
        },
        {
          "name": "jasmy",
          "type": "address",
          "internalType": "address"
        }
      ],
      "stateMutability": "nonpayable"
    },
    {
      "type": "function",
      "name": "DISTRIBUTE_REWARDS_TYPEHASH",
      "inputs": [],
      "outputs": [
        {
          "name": "",
          "type": "bytes32",
          "internalType": "bytes32"
        }
      ],
      "stateMutability": "view"
    },
    {
      "type": "function",
      "name": "JASMY",
      "inputs": [],
      "outputs": [
        {
          "name": "",
          "type": "address",
          "internalType": "address"
        }
      ],
      "stateMutability": "view"
    },
    {
      "type": "function",
      "name": "distributeRewards",
      "inputs": [
        {
          "name": "signature",
          "type": "tuple",
          "internalType": "struct JasmyRewards.EIP712Signature",
          "components": [
            {
              "name": "signer",
              "type": "address",
              "internalType": "address"
            },
            {
              "name": "v",
              "type": "uint8",
              "internalType": "uint8"
            },
            {
              "name": "r",
              "type": "bytes32",
              "internalType": "bytes32"
            },
            {
              "name": "s",
              "type": "bytes32",
              "internalType": "bytes32"
            },
            {
              "name": "deadline",
              "type": "uint256",
              "internalType": "uint256"
            }
          ]
        },
        {
          "name": "rewards",
          "type": "uint256",
          "internalType": "uint256"
        }
      ],
      "outputs": [],
      "stateMutability": "nonpayable"
    },
    {
      "type": "function",
      "name": "eip712Domain",
      "inputs": [],
      "outputs": [
        {
          "name": "fields",
          "type": "bytes1",
          "internalType": "bytes1"
        },
        {
          "name": "name",
          "type": "string",
          "internalType": "string"
        },
        {
          "name": "version",
          "type": "string",
          "internalType": "string"
        },
        {
          "name": "chainId",
          "type": "uint256",
          "internalType": "uint256"
        },
        {
          "name": "verifyingContract",
          "type": "address",
          "internalType": "address"
        },
        {
          "name": "salt",
          "type": "bytes32",
          "internalType": "bytes32"
        },
        {
          "name": "extensions",
          "type": "uint256[]",
          "internalType": "uint256[]"
        }
      ],
      "stateMutability": "view"
    },
    {
      "type": "function",
      "name": "getDomainSeparator",
      "inputs": [],
      "outputs": [
        {
          "name": "",
          "type": "bytes32",
          "internalType": "bytes32"
        }
      ],
      "stateMutability": "view"
    },
    {
      "type": "function",
      "name": "getSigNonce",
      "inputs": [
        {
          "name": "user",
          "type": "address",
          "internalType": "address"
        }
      ],
      "outputs": [
        {
          "name": "",
          "type": "uint256",
          "internalType": "uint256"
        }
      ],
      "stateMutability": "view"
    },
    {
      "type": "function",
      "name": "owner",
      "inputs": [],
      "outputs": [
        {
          "name": "",
          "type": "address",
          "internalType": "address"
        }
      ],
      "stateMutability": "view"
    },
    {
      "type": "function",
      "name": "pause",
      "inputs": [],
      "outputs": [],
      "stateMutability": "nonpayable"
    },
    {
      "type": "function",
      "name": "paused",
      "inputs": [],
      "outputs": [
        {
          "name": "",
          "type": "bool",
          "internalType": "bool"
        }
      ],
      "stateMutability": "view"
    },
    {
      "type": "function",
      "name": "renounceOwnership",
      "inputs": [],
      "outputs": [],
      "stateMutability": "nonpayable"
    },
    {
      "type": "function",
      "name": "setAdministrator",
      "inputs": [
        {
          "name": "administrator",
          "type": "address",
          "internalType": "address"
        }
      ],
      "outputs": [],
      "stateMutability": "nonpayable"
    },
    {
      "type": "function",
      "name": "setJasmy",
      "inputs": [
        {
          "name": "jasmy",
          "type": "address",
          "internalType": "address"
        }
      ],
      "outputs": [],
      "stateMutability": "nonpayable"
    },
    {
      "type": "function",
      "name": "transferOwnership",
      "inputs": [
        {
          "name": "newOwner",
          "type": "address",
          "internalType": "address"
        }
      ],
      "outputs": [],
      "stateMutability": "nonpayable"
    },
    {
      "type": "function",
      "name": "unpause",
      "inputs": [],
      "outputs": [],
      "stateMutability": "nonpayable"
    },
    {
      "type": "function",
      "name": "withdraw",
      "inputs": [
        {
          "name": "to",
          "type": "address",
          "internalType": "address"
        },
        {
          "name": "currency",
          "type": "address",
          "internalType": "address"
        },
        {
          "name": "amount",
          "type": "uint256",
          "internalType": "uint256"
        }
      ],
      "outputs": [],
      "stateMutability": "nonpayable"
    },
    {
      "type": "event",
      "name": "EIP712DomainChanged",
      "inputs": [],
      "anonymous": false
    },
    {
      "type": "event",
      "name": "OwnershipTransferred",
      "inputs": [
        {
          "name": "previousOwner",
          "type": "address",
          "indexed": true,
          "internalType": "address"
        },
        {
          "name": "newOwner",
          "type": "address",
          "indexed": true,
          "internalType": "address"
        }
      ],
      "anonymous": false
    },
    {
      "type": "event",
      "name": "Paused",
      "inputs": [
        {
          "name": "account",
          "type": "address",
          "indexed": false,
          "internalType": "address"
        }
      ],
      "anonymous": false
    },
    {
      "type": "event",
      "name": "RewardsDistributed",
      "inputs": [
        {
          "name": "account",
          "type": "address",
          "indexed": true,
          "internalType": "address"
        },
        {
          "name": "rewards",
          "type": "uint256",
          "indexed": false,
          "internalType": "uint256"
        }
      ],
      "anonymous": false
    },
    {
      "type": "event",
      "name": "Unpaused",
      "inputs": [
        {
          "name": "account",
          "type": "address",
          "indexed": false,
          "internalType": "address"
        }
      ],
      "anonymous": false
    },
    {
      "type": "event",
      "name": "Withdrawed",
      "inputs": [
        {
          "name": "to",
          "type": "address",
          "indexed": true,
          "internalType": "address"
        },
        {
          "name": "currency",
          "type": "address",
          "indexed": true,
          "internalType": "address"
        },
        {
          "name": "amount",
          "type": "uint256",
          "indexed": false,
          "internalType": "uint256"
        }
      ],
      "anonymous": false
    },
    {
      "type": "error",
      "name": "AddressEmptyCode",
      "inputs": [
        {
          "name": "target",
          "type": "address",
          "internalType": "address"
        }
      ]
    },
    {
      "type": "error",
      "name": "AddressInsufficientBalance",
      "inputs": [
        {
          "name": "account",
          "type": "address",
          "internalType": "address"
        }
      ]
    },
    {
      "type": "error",
      "name": "EnforcedPause",
      "inputs": []
    },
    {
      "type": "error",
      "name": "ExpectedPause",
      "inputs": []
    },
    {
      "type": "error",
      "name": "FailedInnerCall",
      "inputs": []
    },
    {
      "type": "error",
      "name": "InvalidShortString",
      "inputs": []
    },
    {
      "type": "error",
      "name": "OwnableInvalidOwner",
      "inputs": [
        {
          "name": "owner",
          "type": "address",
          "internalType": "address"
        }
      ]
    },
    {
      "type": "error",
      "name": "OwnableUnauthorizedAccount",
      "inputs": [
        {
          "name": "account",
          "type": "address",
          "internalType": "address"
        }
      ]
    },
    {
      "type": "error",
      "name": "SafeERC20FailedOperation",
      "inputs": [
        {
          "name": "token",
          "type": "address",
          "internalType": "address"
        }
      ]
    },
    {
      "type": "error",
      "name": "StringTooLong",
      "inputs": [
        {
          "name": "str",
          "type": "string",
          "internalType": "string"
        }
      ]
    }
  ],
  "bytecode": {
    "object": "0x61016060405234801561001157600080fd5b5060405161153b38038061153b8339810160408190526100309161026e565b604080518082018252600c81526b4a61736d795265776172647360a01b602080830191909152825180840190935260018352603160f81b9083015290846001600160a01b03811661009c57604051631e4fbdf760e01b8152600060048201526024015b60405180910390fd5b6100a581610191565b506100b18260016101e1565b610120526100c08160026101e1565b61014052815160208084019190912060e052815190820120610100524660a05261014d60e05161010051604080517f8b73c3c69bb8fe3d512ecc4cf759cc79239f7b179b0ffacaa9a75d522b39400f60208201529081019290925260608201524660808201523060a082015260009060c00160405160208183030381529060405280519060200120905090565b60805250503060c052600380546001600160a81b0319166101006001600160a01b0394851602179055600480546001600160a01b0319169190921617905550610480565b600080546001600160a01b038381166001600160a01b0319831681178455604051919092169283917f8be0079c531659141344cd1fd0a4f28419497f9722a3daafe3b4186f6b6457e09190a35050565b60006020835110156101fd576101f683610214565b905061020e565b816102088482610350565b5060ff90505b92915050565b600080829050601f8151111561023f578260405163305a27a960e01b8152600401610093919061040e565b805161024a8261045c565b179392505050565b80516001600160a01b038116811461026957600080fd5b919050565b60008060006060848603121561028357600080fd5b61028c84610252565b925061029a60208501610252565b91506102a860408501610252565b90509250925092565b634e487b7160e01b600052604160045260246000fd5b600181811c908216806102db57607f821691505b6020821081036102fb57634e487b7160e01b600052602260045260246000fd5b50919050565b601f82111561034b57806000526020600020601f840160051c810160208510156103285750805b601f840160051c820191505b818110156103485760008155600101610334565b50505b505050565b81516001600160401b03811115610369576103696102b1565b61037d8161037784546102c7565b84610301565b6020601f8211600181146103b157600083156103995750848201515b600019600385901b1c1916600184901b178455610348565b600084815260208120601f198516915b828110156103e157878501518255602094850194600190920191016103c1565b50848210156103ff5786840151600019600387901b60f8161c191681555b50505050600190811b01905550565b602081526000825180602084015260005b8181101561043c576020818601810151604086840101520161041f565b506000604082850101526040601f19601f83011684010191505092915050565b805160208083015191908110156102fb5760001960209190910360031b1b16919050565b60805160a05160c05160e0516101005161012051610140516110616104da60003960006107a70152600061077a01526000610a0f015260006109e7015260006109420152600061096c0152600061099601526110616000f3fe608060405234801561001057600080fd5b50600436106100f55760003560e01c806384b0196e11610097578063d9caed1211610066578063d9caed12146101eb578063df8089ef146101fe578063ed24911d14610211578063f2fde38b1461021957600080fd5b806384b0196e146101815780638bbd6e821461019c5780638da5cb5b146101c7578063c6f6f8d4146101d857600080fd5b8063428a55ff116100d3578063428a55ff146101535780635c975abb1461015b578063715018a6146101715780638456cb591461017957600080fd5b806305ac0ab4146100fa5780631a7feebe146101365780633f4ba83a1461014b575b600080fd5b610123610108366004610d4b565b6001600160a01b031660009081526005602052604090205490565b6040519081526020015b60405180910390f35b610149610144366004610d4b565b61022c565b005b610149610256565b610123610268565b60035460ff16604051901515815260200161012d565b61014961028b565b61014961029d565b6101896102ad565b60405161012d9796959493929190610db6565b6004546101af906001600160a01b031681565b6040516001600160a01b03909116815260200161012d565b6000546001600160a01b03166101af565b6101496101e6366004610e5f565b6102f3565b6101496101f9366004610efd565b6104d6565b61014961020c366004610d4b565b6105ea565b61012361061a565b610149610227366004610d4b565b610629565b610234610667565b600480546001600160a01b0319166001600160a01b0392909216919091179055565b61025e610667565b610266610694565b565b604051806080016040528060528152602001610fda605291398051906020012081565b610293610667565b61026660006106e6565b6102a5610667565b610266610736565b6000606080600080600060606102c1610773565b6102c96107a0565b60408051600080825260208201909252600f60f81b9b939a50919850469750309650945092509050565b6102fb6107cd565b600033905060006103b16103ab604051806080016040528060528152602001610fda6052913980516020918201206001600160a01b03861660009081526005909252604082208054919287928992909161035483610f3a565b909155506080808b01516040805160208101979097526001600160a01b039095169486019490945260608501929092529083015260a082015260c001604051602081830303815290604052805190602001206107f1565b85610824565b9050806001600160a01b031684600001516001600160a01b0316146104125760405162461bcd60e51b81526020600482015260126024820152710e6d2cedcc2e8eae4ca40dad2e6dac2e8c6d60731b60448201526064015b60405180910390fd5b60035484516001600160a01b0390811661010090920416146104765760405162461bcd60e51b815260206004820181905260248201527f7369676e6174757265206e6f742066726f6d2061646d696e6973747261746f726044820152606401610409565b60045461048d906001600160a01b031683856108de565b816001600160a01b03167fdf29796aad820e4bb192f3a8d631b76519bcd2cbe77cc85af20e9df53cece086846040516104c891815260200190565b60405180910390a250505050565b6104de610667565b6001600160a01b0383166105345760405162461bcd60e51b815260206004820152601960248201527f696e76616c696420726563697069656e742061646472657373000000000000006044820152606401610409565b600081116105845760405162461bcd60e51b815260206004820181905260248201527f616d6f756e74206d7573742062652067726561746572207468616e207a65726f6044820152606401610409565b6105986001600160a01b03831684836108de565b816001600160a01b0316836001600160a01b03167ff10eae2de0b095be715d0a32380cea8e913ae297b48430b5397024146ce90365836040516105dd91815260200190565b60405180910390a3505050565b6105f2610667565b600380546001600160a01b0390921661010002610100600160a81b0319909216919091179055565b6000610624610935565b905090565b610631610667565b6001600160a01b03811661065b57604051631e4fbdf760e01b815260006004820152602401610409565b610664816106e6565b50565b6000546001600160a01b031633146102665760405163118cdaa760e01b8152336004820152602401610409565b61069c610a60565b6003805460ff191690557f5db9ee0a495bf2e6ff9c91a7834c1ba4fdd244a5e8aa4e537bd38aeae4b073aa335b6040516001600160a01b03909116815260200160405180910390a1565b600080546001600160a01b038381166001600160a01b0319831681178455604051919092169283917f8be0079c531659141344cd1fd0a4f28419497f9722a3daafe3b4186f6b6457e09190a35050565b61073e6107cd565b6003805460ff191660011790557f62e78cea01bee320cd4e420270b5ea74000d11b0c9f74754ebdbfc544b05a2586106c93390565b60606106247f00000000000000000000000000000000000000000000000000000000000000006001610a83565b60606106247f00000000000000000000000000000000000000000000000000000000000000006002610a83565b60035460ff16156102665760405163d93c066560e01b815260040160405180910390fd5b600061081e6107fe610935565b8360405161190160f01b8152600281019290925260228201526042902090565b92915050565b60008160800151421061086d5760405162461bcd60e51b81526020600482015260116024820152701cda59db985d1d5c9948195e1c1a5c9959607a1b6044820152606401610409565b602080830151604080850151606080870151835160008082529681018086528a905260ff90951693850193909352830152608082015260019060a0016020604051602081039080840390855afa1580156108cb573d6000803e3d6000fd5b5050604051601f19015195945050505050565b604080516001600160a01b038416602482015260448082018490528251808303909101815260649091019091526020810180516001600160e01b031663a9059cbb60e01b179052610930908490610b2e565b505050565b6000306001600160a01b037f00000000000000000000000000000000000000000000000000000000000000001614801561098e57507f000000000000000000000000000000000000000000000000000000000000000046145b156109b857507f000000000000000000000000000000000000000000000000000000000000000090565b610624604080517f8b73c3c69bb8fe3d512ecc4cf759cc79239f7b179b0ffacaa9a75d522b39400f60208201527f0000000000000000000000000000000000000000000000000000000000000000918101919091527f000000000000000000000000000000000000000000000000000000000000000060608201524660808201523060a082015260009060c00160405160208183030381529060405280519060200120905090565b60035460ff1661026657604051638dfc202b60e01b815260040160405180910390fd5b606060ff8314610a9d57610a9683610b91565b905061081e565b818054610aa990610f61565b80601f0160208091040260200160405190810160405280929190818152602001828054610ad590610f61565b8015610b225780601f10610af757610100808354040283529160200191610b22565b820191906000526020600020905b815481529060010190602001808311610b0557829003601f168201915b5050505050905061081e565b6000610b436001600160a01b03841683610bd0565b90508051600014158015610b68575080806020019051810190610b669190610f9b565b155b1561093057604051635274afe760e01b81526001600160a01b0384166004820152602401610409565b60606000610b9e83610be5565b604080516020808252818301909252919250600091906020820181803683375050509182525060208101929092525090565b6060610bde83836000610c0d565b9392505050565b600060ff8216601f81111561081e57604051632cd44ac360e21b815260040160405180910390fd5b606081471015610c325760405163cd78605960e01b8152306004820152602401610409565b600080856001600160a01b03168486604051610c4e9190610fbd565b60006040518083038185875af1925050503d8060008114610c8b576040519150601f19603f3d011682016040523d82523d6000602084013e610c90565b606091505b5091509150610ca0868383610caa565b9695505050505050565b606082610cbf57610cba82610d06565b610bde565b8151158015610cd657506001600160a01b0384163b155b15610cff57604051639996b31560e01b81526001600160a01b0385166004820152602401610409565b5080610bde565b805115610d165780518082602001fd5b604051630a12f52160e11b815260040160405180910390fd5b80356001600160a01b0381168114610d4657600080fd5b919050565b600060208284031215610d5d57600080fd5b610bde82610d2f565b60005b83811015610d81578181015183820152602001610d69565b50506000910152565b60008151808452610da2816020860160208601610d66565b601f01601f19169290920160200192915050565b60ff60f81b8816815260e060208201526000610dd560e0830189610d8a565b8281036040840152610de78189610d8a565b606084018890526001600160a01b038716608085015260a0840186905283810360c08501528451808252602080870193509091019060005b81811015610e3d578351835260209384019390920191600101610e1f565b50909b9a5050505050505050505050565b803560ff81168114610d4657600080fd5b60008082840360c0811215610e7357600080fd5b60a0811215610e8157600080fd5b5060405160a0810181811067ffffffffffffffff82111715610eb357634e487b7160e01b600052604160045260246000fd5b604052610ebf84610d2f565b8152610ecd60208501610e4e565b60208201526040848101359082015260608085013590820152608080850135908201529460a09093013593505050565b600080600060608486031215610f1257600080fd5b610f1b84610d2f565b9250610f2960208501610d2f565b929592945050506040919091013590565b600060018201610f5a57634e487b7160e01b600052601160045260246000fd5b5060010190565b600181811c90821680610f7557607f821691505b602082108103610f9557634e487b7160e01b600052602260045260246000fd5b50919050565b600060208284031215610fad57600080fd5b81518015158114610bde57600080fd5b60008251610fcf818460208701610d66565b919091019291505056fe446973747269627574655265776172647328616464726573732072656365697665722c75696e7432353620726577617264732c75696e74323536206e6f6e63652c75696e7432353620646561646c696e6529a26469706673582212205bfc35f8b1bd92755d0ad15f0e04e196125a2fda3f3fd605717883c8bf9b5cd964736f6c634300081a0033",
    "linkReferences": {}
  },
  "methodIdentifiers": {
    "DISTRIBUTE_REWARDS_TYPEHASH()": "428a55ff",
    "JASMY()": "8bbd6e82",
    "distributeRewards((address,uint8,bytes32,bytes32,uint256),uint256)": "c6f6f8d4",
    "eip712Domain()": "84b0196e",
    "getDomainSeparator()": "ed24911d",
    "getSigNonce(address)": "05ac0ab4",
    "owner()": "8da5cb5b",
    "pause()": "8456cb59",
    "paused()": "5c975abb",
    "renounceOwnership()": "715018a6",
    "setAdministrator(address)": "df8089ef",
    "setJasmy(address)": "1a7feebe",
    "transferOwnership(address)": "f2fde38b",
    "unpause()": "3f4ba83a",
    "withdraw(address,address,uint256)": "d9caed12"
  },
  "id": 49
}