{
  "abi": [
    {
      "type": "function",
      "name": "UPGRADE_INTERFACE_VERSION",
      "inputs": [],
      "outputs": [
        {
          "name": "",
          "type": "string",
          "internalType": "string"
        }
      ],
      "stateMutability": "view"
    },
    {
      "type": "function",
      "name": "batchEscrow",
      "inputs": [
        {
          "name": "tokenIdList",
          "type": "uint256[]",
          "internalType": "uint256[]"
        }
      ],
      "outputs": [],
      "stateMutability": "nonpayable"
    },
    {
      "type": "function",
      "name": "batchUnescrow",
      "inputs": [
        {
          "name": "tokenIdList",
          "type": "uint256[]",
          "internalType": "uint256[]"
        }
      ],
      "outputs": [],
      "stateMutability": "nonpayable"
    },
    {
      "type": "function",
      "name": "escrow",
      "inputs": [
        {
          "name": "tokenId",
          "type": "uint256",
          "internalType": "uint256"
        }
      ],
      "outputs": [],
      "stateMutability": "nonpayable"
    },
    {
      "type": "function",
      "name": "initialize",
      "inputs": [
        {
          "name": "initialOwner",
          "type": "address",
          "internalType": "address"
        },
        {
          "name": "nft",
          "type": "address",
          "internalType": "address"
        }
      ],
      "outputs": [],
      "stateMutability": "nonpayable"
    },
    {
      "type": "function",
      "name": "janctionNFT",
      "inputs": [],
      "outputs": [
        {
          "name": "",
          "type": "address",
          "internalType": "address"
        }
      ],
      "stateMutability": "view"
    },
    {
      "type": "function",
      "name": "owner",
      "inputs": [],
      "outputs": [
        {
          "name": "",
          "type": "address",
          "internalType": "address"
        }
      ],
      "stateMutability": "view"
    },
    {
      "type": "function",
      "name": "ownerByToken",
      "inputs": [
        {
          "name": "",
          "type": "uint256",
          "internalType": "uint256"
        }
      ],
      "outputs": [
        {
          "name": "",
          "type": "address",
          "internalType": "address"
        }
      ],
      "stateMutability": "view"
    },
    {
      "type": "function",
      "name": "proxiableUUID",
      "inputs": [],
      "outputs": [
        {
          "name": "",
          "type": "bytes32",
          "internalType": "bytes32"
        }
      ],
      "stateMutability": "view"
    },
    {
      "type": "function",
      "name": "renounceOwnership",
      "inputs": [],
      "outputs": [],
      "stateMutability": "nonpayable"
    },
    {
      "type": "function",
      "name": "transferOwnership",
      "inputs": [
        {
          "name": "newOwner",
          "type": "address",
          "internalType": "address"
        }
      ],
      "outputs": [],
      "stateMutability": "nonpayable"
    },
    {
      "type": "function",
      "name": "unescrow",
      "inputs": [
        {
          "name": "tokenId",
          "type": "uint256",
          "internalType": "uint256"
        }
      ],
      "outputs": [],
      "stateMutability": "nonpayable"
    },
    {
      "type": "function",
      "name": "upgradeToAndCall",
      "inputs": [
        {
          "name": "newImplementation",
          "type": "address",
          "internalType": "address"
        },
        {
          "name": "data",
          "type": "bytes",
          "internalType": "bytes"
        }
      ],
      "outputs": [],
      "stateMutability": "payable"
    },
    {
      "type": "function",
      "name": "withdraw",
      "inputs": [
        {
          "name": "tokenIdList",
          "type": "uint256[]",
          "internalType": "uint256[]"
        },
        {
          "name": "to",
          "type": "address",
          "internalType": "address"
        }
      ],
      "outputs": [],
      "stateMutability": "nonpayable"
    },
    {
      "type": "event",
      "name": "Escrowed",
      "inputs": [
        {
          "name": "owner",
          "type": "address",
          "indexed": true,
          "internalType": "address"
        },
        {
          "name": "tokenId",
          "type": "uint256",
          "indexed": true,
          "internalType": "uint256"
        }
      ],
      "anonymous": false
    },
    {
      "type": "event",
      "name": "Initialized",
      "inputs": [
        {
          "name": "version",
          "type": "uint64",
          "indexed": false,
          "internalType": "uint64"
        }
      ],
      "anonymous": false
    },
    {
      "type": "event",
      "name": "OwnershipTransferred",
      "inputs": [
        {
          "name": "previousOwner",
          "type": "address",
          "indexed": true,
          "internalType": "address"
        },
        {
          "name": "newOwner",
          "type": "address",
          "indexed": true,
          "internalType": "address"
        }
      ],
      "anonymous": false
    },
    {
      "type": "event",
      "name": "Unescrowed",
      "inputs": [
        {
          "name": "owner",
          "type": "address",
          "indexed": true,
          "internalType": "address"
        },
        {
          "name": "tokenId",
          "type": "uint256",
          "indexed": true,
          "internalType": "uint256"
        }
      ],
      "anonymous": false
    },
    {
      "type": "event",
      "name": "Upgraded",
      "inputs": [
        {
          "name": "implementation",
          "type": "address",
          "indexed": true,
          "internalType": "address"
        }
      ],
      "anonymous": false
    },
    {
      "type": "error",
      "name": "AddressEmptyCode",
      "inputs": [
        {
          "name": "target",
          "type": "address",
          "internalType": "address"
        }
      ]
    },
    {
      "type": "error",
      "name": "ERC1967InvalidImplementation",
      "inputs": [
        {
          "name": "implementation",
          "type": "address",
          "internalType": "address"
        }
      ]
    },
    {
      "type": "error",
      "name": "ERC1967NonPayable",
      "inputs": []
    },
    {
      "type": "error",
      "name": "FailedInnerCall",
      "inputs": []
    },
    {
      "type": "error",
      "name": "InvalidInitialization",
      "inputs": []
    },
    {
      "type": "error",
      "name": "NotInitializing",
      "inputs": []
    },
    {
      "type": "error",
      "name": "OwnableInvalidOwner",
      "inputs": [
        {
          "name": "owner",
          "type": "address",
          "internalType": "address"
        }
      ]
    },
    {
      "type": "error",
      "name": "OwnableUnauthorizedAccount",
      "inputs": [
        {
          "name": "account",
          "type": "address",
          "internalType": "address"
        }
      ]
    },
    {
      "type": "error",
      "name": "UUPSUnauthorizedCallContext",
      "inputs": []
    },
    {
      "type": "error",
      "name": "UUPSUnsupportedProxiableUUID",
      "inputs": [
        {
          "name": "slot",
          "type": "bytes32",
          "internalType": "bytes32"
        }
      ]
    }
  ],
  "bytecode": {
    "object": "0x60a060405230608052348015601357600080fd5b50608051610fe961003d600039600081816107da0152818161080301526109440152610fe96000f3fe6080604052600436106100dd5760003560e01c80638da5cb5b1161007f578063aee017a611610059578063aee017a61461027d578063b8f4bd7b1461029d578063d68ff191146102bd578063f2fde38b146102dd57600080fd5b80638da5cb5b146101cc5780638e36dbd014610209578063ad3cb1cc1461023f57600080fd5b8063485cc955116100bb578063485cc955146101615780634f1ef2861461018157806352d1902d14610194578063715018a6146101b757600080fd5b80630e8544d5146100e25780631964e0441461010457806346d4b4d914610141575b600080fd5b3480156100ee57600080fd5b506101026100fd366004610c77565b6102fd565b005b34801561011057600080fd5b50600054610124906001600160a01b031681565b6040516001600160a01b0390911681526020015b60405180910390f35b34801561014d57600080fd5b5061010261015c366004610d5a565b610412565b34801561016d57600080fd5b5061010261017c366004610db3565b61044c565b61010261018f366004610de6565b610578565b3480156101a057600080fd5b506101a9610593565b604051908152602001610138565b3480156101c357600080fd5b506101026105b0565b3480156101d857600080fd5b507f9016d09d72d40fdae2fd8ceac6b6234c7706214fd39c1cd1e609a0528c199300546001600160a01b0316610124565b34801561021557600080fd5b50610124610224366004610c77565b6001602052600090815260409020546001600160a01b031681565b34801561024b57600080fd5b50610270604051806040016040528060058152602001640352e302e360dc1b81525081565b6040516101389190610eb5565b34801561028957600080fd5b50610102610298366004610d5a565b6105c4565b3480156102a957600080fd5b506101026102b8366004610ee8565b6105fa565b3480156102c957600080fd5b506101026102d8366004610c77565b6106c6565b3480156102e957600080fd5b506101026102f8366004610f2d565b610780565b6000818152600160205260409020546001600160a01b0316331461035d5760405162461bcd60e51b81526020600482015260126024820152713737ba103a37b5b2b71034b21037bbb732b960711b60448201526064015b60405180910390fd5b60008181526001602052604080822080546001600160a01b0319169055905490516323b872dd60e01b8152306004820152336024820152604481018390526001600160a01b03909116906323b872dd90606401600060405180830381600087803b1580156103ca57600080fd5b505af11580156103de573d6000803e3d6000fd5b50506040518392503391507f1025f748a911445ebbb748ca85cb80343dfef0bb3efb9dbe9601e1e234d1cef090600090a350565b60005b81518110156104485761044082828151811061043357610433610f48565b60200260200101516106c6565b600101610415565b5050565b7ff0c57e16840df040f15088dc2f81fe391c3923bec73e23a9662efc9c229c6a008054600160401b810460ff16159067ffffffffffffffff166000811580156104925750825b905060008267ffffffffffffffff1660011480156104af5750303b155b9050811580156104bd575080155b156104db5760405163f92ee8a960e01b815260040160405180910390fd5b845467ffffffffffffffff19166001178555831561050557845460ff60401b1916600160401b1785555b61050e876107be565b600080546001600160a01b0319166001600160a01b038816179055831561056f57845460ff60401b19168555604051600181527fc7f505b2f371ae2175ee4913f4499e1f2633a7b5936321eed1cdaeb6115181d29060200160405180910390a15b50505050505050565b6105806107cf565b61058982610874565b610448828261087c565b600061059d610939565b50600080516020610f9483398151915290565b6105b8610982565b6105c260006109dd565b565b60005b8151811015610448576105f28282815181106105e5576105e5610f48565b60200260200101516102fd565b6001016105c7565b610602610982565b60005b82518110156106c15760008054906101000a90046001600160a01b03166001600160a01b03166323b872dd308486858151811061064457610644610f48565b60209081029190910101516040516001600160e01b031960e086901b1681526001600160a01b0393841660048201529290911660248301526044820152606401600060405180830381600087803b15801561069e57600080fd5b505af11580156106b2573d6000803e3d6000fd5b50505050806001019050610605565b505050565b60008181526001602052604080822080546001600160a01b03191633908117909155915490516323b872dd60e01b81526004810192909252306024830152604482018390526001600160a01b0316906323b872dd90606401600060405180830381600087803b15801561073857600080fd5b505af115801561074c573d6000803e3d6000fd5b50506040518392503391507fcb7d7ce9611470e9f27fec2b4f445900699486a2b971ef1292d7912358d198ea90600090a350565b610788610982565b6001600160a01b0381166107b257604051631e4fbdf760e01b815260006004820152602401610354565b6107bb816109dd565b50565b6107c6610a4e565b6107bb81610a97565b306001600160a01b037f000000000000000000000000000000000000000000000000000000000000000016148061085657507f00000000000000000000000000000000000000000000000000000000000000006001600160a01b031661084a600080516020610f94833981519152546001600160a01b031690565b6001600160a01b031614155b156105c25760405163703e46dd60e11b815260040160405180910390fd5b6107bb610982565b816001600160a01b03166352d1902d6040518163ffffffff1660e01b8152600401602060405180830381865afa9250505080156108d6575060408051601f3d908101601f191682019092526108d391810190610f5e565b60015b6108fe57604051634c9c8ce360e01b81526001600160a01b0383166004820152602401610354565b600080516020610f94833981519152811461092f57604051632a87526960e21b815260048101829052602401610354565b6106c18383610a9f565b306001600160a01b037f000000000000000000000000000000000000000000000000000000000000000016146105c25760405163703e46dd60e11b815260040160405180910390fd5b336109b47f9016d09d72d40fdae2fd8ceac6b6234c7706214fd39c1cd1e609a0528c199300546001600160a01b031690565b6001600160a01b0316146105c25760405163118cdaa760e01b8152336004820152602401610354565b7f9016d09d72d40fdae2fd8ceac6b6234c7706214fd39c1cd1e609a0528c19930080546001600160a01b031981166001600160a01b03848116918217845560405192169182907f8be0079c531659141344cd1fd0a4f28419497f9722a3daafe3b4186f6b6457e090600090a3505050565b7ff0c57e16840df040f15088dc2f81fe391c3923bec73e23a9662efc9c229c6a0054600160401b900460ff166105c257604051631afcd79f60e31b815260040160405180910390fd5b610788610a4e565b610aa882610af5565b6040516001600160a01b038316907fbc7cd75a20ee27fd9adebab32041f755214dbc6bffa90cc0225b39da2e5c2d3b90600090a2805115610aed576106c18282610b5a565b610448610bd0565b806001600160a01b03163b600003610b2b57604051634c9c8ce360e01b81526001600160a01b0382166004820152602401610354565b600080516020610f9483398151915280546001600160a01b0319166001600160a01b0392909216919091179055565b6060600080846001600160a01b031684604051610b779190610f77565b600060405180830381855af49150503d8060008114610bb2576040519150601f19603f3d011682016040523d82523d6000602084013e610bb7565b606091505b5091509150610bc7858383610bef565b95945050505050565b34156105c25760405163b398979f60e01b815260040160405180910390fd5b606082610c0457610bff82610c4e565b610c47565b8151158015610c1b57506001600160a01b0384163b155b15610c4457604051639996b31560e01b81526001600160a01b0385166004820152602401610354565b50805b9392505050565b805115610c5e5780518082602001fd5b604051630a12f52160e11b815260040160405180910390fd5b600060208284031215610c8957600080fd5b5035919050565b634e487b7160e01b600052604160045260246000fd5b604051601f8201601f1916810167ffffffffffffffff81118282101715610ccf57610ccf610c90565b604052919050565b600082601f830112610ce857600080fd5b813567ffffffffffffffff811115610d0257610d02610c90565b8060051b610d1260208201610ca6565b91825260208185018101929081019086841115610d2e57600080fd5b6020860192505b83831015610d50578235825260209283019290910190610d35565b9695505050505050565b600060208284031215610d6c57600080fd5b813567ffffffffffffffff811115610d8357600080fd5b610d8f84828501610cd7565b949350505050565b80356001600160a01b0381168114610dae57600080fd5b919050565b60008060408385031215610dc657600080fd5b610dcf83610d97565b9150610ddd60208401610d97565b90509250929050565b60008060408385031215610df957600080fd5b610e0283610d97565b9150602083013567ffffffffffffffff811115610e1e57600080fd5b8301601f81018513610e2f57600080fd5b803567ffffffffffffffff811115610e4957610e49610c90565b610e5c601f8201601f1916602001610ca6565b818152866020838501011115610e7157600080fd5b816020840160208301376000602083830101528093505050509250929050565b60005b83811015610eac578181015183820152602001610e94565b50506000910152565b6020815260008251806020840152610ed4816040850160208701610e91565b601f01601f19169190910160400192915050565b60008060408385031215610efb57600080fd5b823567ffffffffffffffff811115610f1257600080fd5b610f1e85828601610cd7565b925050610ddd60208401610d97565b600060208284031215610f3f57600080fd5b610c4782610d97565b634e487b7160e01b600052603260045260246000fd5b600060208284031215610f7057600080fd5b5051919050565b60008251610f89818460208701610e91565b919091019291505056fe360894a13ba1a3210667c828492db98dca3e2076cc3735a920a3ca505d382bbca2646970667358221220417b2103ba8ba5e2db72cee0767e144f85b3ba7a4567b39b0617738a11d39abd64736f6c634300081a0033",
    "linkReferences": {}
  },
  "methodIdentifiers": {
    "UPGRADE_INTERFACE_VERSION()": "ad3cb1cc",
    "batchEscrow(uint256[])": "46d4b4d9",
    "batchUnescrow(uint256[])": "aee017a6",
    "escrow(uint256)": "d68ff191",
    "initialize(address,address)": "485cc955",
    "janctionNFT()": "1964e044",
    "owner()": "8da5cb5b",
    "ownerByToken(uint256)": "8e36dbd0",
    "proxiableUUID()": "52d1902d",
    "renounceOwnership()": "715018a6",
    "transferOwnership(address)": "f2fde38b",
    "unescrow(uint256)": "0e8544d5",
    "upgradeToAndCall(address,bytes)": "4f1ef286",
    "withdraw(uint256[],address)": "b8f4bd7b"
  },
  "id": 54
}