{
  "abi": [
    {
      "type": "function",
      "name": "UPGRADE_INTERFACE_VERSION",
      "inputs": [],
      "outputs": [
        {
          "name": "",
          "type": "string",
          "internalType": "string"
        }
      ],
      "stateMutability": "view"
    },
    {
      "type": "function",
      "name": "createPaymentPlan",
      "inputs": [
        {
          "name": "payer",
          "type": "address",
          "internalType": "address"
        },
        {
          "name": "recipient",
          "type": "address",
          "internalType": "address"
        },
        {
          "name": "currency",
          "type": "address",
          "internalType": "address"
        },
        {
          "name": "totalAmount",
          "type": "uint256",
          "internalType": "uint256"
        },
        {
          "name": "totalDays",
          "type": "uint256",
          "internalType": "uint256"
        }
      ],
      "outputs": [],
      "stateMutability": "nonpayable"
    },
    {
      "type": "function",
      "name": "getPaymentPlan",
      "inputs": [
        {
          "name": "paymentId",
          "type": "bytes32",
          "internalType": "bytes32"
        }
      ],
      "outputs": [
        {
          "name": "",
          "type": "tuple",
          "internalType": "struct PaymentImpl.PaymentPlan",
          "components": [
            {
              "name": "stopped",
              "type": "bool",
              "internalType": "bool"
            },
            {
              "name": "payer",
              "type": "address",
              "internalType": "address"
            },
            {
              "name": "recipient",
              "type": "address",
              "internalType": "address"
            },
            {
              "name": "currency",
              "type": "address",
              "internalType": "address"
            },
            {
              "name": "totalAmount",
              "type": "uint256",
              "internalType": "uint256"
            },
            {
              "name": "dailyAmount",
              "type": "uint256",
              "internalType": "uint256"
            },
            {
              "name": "startTime",
              "type": "uint256",
              "internalType": "uint256"
            },
            {
              "name": "paidDays",
              "type": "uint256",
              "internalType": "uint256"
            },
            {
              "name": "totalDays",
              "type": "uint256",
              "internalType": "uint256"
            }
          ]
        }
      ],
      "stateMutability": "view"
    },
    {
      "type": "function",
      "name": "initialize",
      "inputs": [
        {
          "name": "initialOwner",
          "type": "address",
          "internalType": "address"
        },
        {
          "name": "threshold",
          "type": "uint256",
          "internalType": "uint256"
        }
      ],
      "outputs": [],
      "stateMutability": "nonpayable"
    },
    {
      "type": "function",
      "name": "isCurrencyWhitelisted",
      "inputs": [
        {
          "name": "",
          "type": "address",
          "internalType": "address"
        }
      ],
      "outputs": [
        {
          "name": "",
          "type": "bool",
          "internalType": "bool"
        }
      ],
      "stateMutability": "view"
    },
    {
      "type": "function",
      "name": "owner",
      "inputs": [],
      "outputs": [
        {
          "name": "",
          "type": "address",
          "internalType": "address"
        }
      ],
      "stateMutability": "view"
    },
    {
      "type": "function",
      "name": "proxiableUUID",
      "inputs": [],
      "outputs": [
        {
          "name": "",
          "type": "bytes32",
          "internalType": "bytes32"
        }
      ],
      "stateMutability": "view"
    },
    {
      "type": "function",
      "name": "releaseDailyPayment",
      "inputs": [
        {
          "name": "paymentId",
          "type": "bytes32",
          "internalType": "bytes32"
        }
      ],
      "outputs": [],
      "stateMutability": "nonpayable"
    },
    {
      "type": "function",
      "name": "renounceOwnership",
      "inputs": [],
      "outputs": [],
      "stateMutability": "nonpayable"
    },
    {
      "type": "function",
      "name": "setSignatureThreshold",
      "inputs": [
        {
          "name": "threshold",
          "type": "uint256",
          "internalType": "uint256"
        }
      ],
      "outputs": [],
      "stateMutability": "nonpayable"
    },
    {
      "type": "function",
      "name": "signatureThreshold",
      "inputs": [],
      "outputs": [
        {
          "name": "",
          "type": "uint256",
          "internalType": "uint256"
        }
      ],
      "stateMutability": "view"
    },
    {
      "type": "function",
      "name": "stopPaymentPlan",
      "inputs": [
        {
          "name": "paymentId",
          "type": "bytes32",
          "internalType": "bytes32"
        },
        {
          "name": "signatures",
          "type": "bytes[]",
          "internalType": "bytes[]"
        }
      ],
      "outputs": [],
      "stateMutability": "nonpayable"
    },
    {
      "type": "function",
      "name": "transferOwnership",
      "inputs": [
        {
          "name": "newOwner",
          "type": "address",
          "internalType": "address"
        }
      ],
      "outputs": [],
      "stateMutability": "nonpayable"
    },
    {
      "type": "function",
      "name": "upgradeToAndCall",
      "inputs": [
        {
          "name": "newImplementation",
          "type": "address",
          "internalType": "address"
        },
        {
          "name": "data",
          "type": "bytes",
          "internalType": "bytes"
        }
      ],
      "outputs": [],
      "stateMutability": "payable"
    },
    {
      "type": "function",
      "name": "whitelistCurrency",
      "inputs": [
        {
          "name": "currency",
          "type": "address",
          "internalType": "address"
        },
        {
          "name": "status",
          "type": "bool",
          "internalType": "bool"
        }
      ],
      "outputs": [],
      "stateMutability": "nonpayable"
    },
    {
      "type": "event",
      "name": "DailyPaymentReleased",
      "inputs": [
        {
          "name": "paymentId",
          "type": "bytes32",
          "indexed": true,
          "internalType": "bytes32"
        },
        {
          "name": "payer",
          "type": "address",
          "indexed": true,
          "internalType": "address"
        },
        {
          "name": "recipient",
          "type": "address",
          "indexed": true,
          "internalType": "address"
        },
        {
          "name": "paidDays",
          "type": "uint256",
          "indexed": false,
          "internalType": "uint256"
        }
      ],
      "anonymous": false
    },
    {
      "type": "event",
      "name": "Initialized",
      "inputs": [
        {
          "name": "version",
          "type": "uint64",
          "indexed": false,
          "internalType": "uint64"
        }
      ],
      "anonymous": false
    },
    {
      "type": "event",
      "name": "OwnershipTransferred",
      "inputs": [
        {
          "name": "previousOwner",
          "type": "address",
          "indexed": true,
          "internalType": "address"
        },
        {
          "name": "newOwner",
          "type": "address",
          "indexed": true,
          "internalType": "address"
        }
      ],
      "anonymous": false
    },
    {
      "type": "event",
      "name": "PaymentPlanCreated",
      "inputs": [
        {
          "name": "paymentId",
          "type": "bytes32",
          "indexed": true,
          "internalType": "bytes32"
        },
        {
          "name": "payer",
          "type": "address",
          "indexed": true,
          "internalType": "address"
        },
        {
          "name": "recipient",
          "type": "address",
          "indexed": true,
          "internalType": "address"
        },
        {
          "name": "currency",
          "type": "address",
          "indexed": false,
          "internalType": "address"
        },
        {
          "name": "totalDays",
          "type": "uint256",
          "indexed": false,
          "internalType": "uint256"
        },
        {
          "name": "totalAmount",
          "type": "uint256",
          "indexed": false,
          "internalType": "uint256"
        },
        {
          "name": "dailyAmount",
          "type": "uint256",
          "indexed": false,
          "internalType": "uint256"
        }
      ],
      "anonymous": false
    },
    {
      "type": "event",
      "name": "PaymentPlanStopped",
      "inputs": [
        {
          "name": "paymentId",
          "type": "bytes32",
          "indexed": true,
          "internalType": "bytes32"
        },
        {
          "name": "payer",
          "type": "address",
          "indexed": true,
          "internalType": "address"
        },
        {
          "name": "recipient",
          "type": "address",
          "indexed": true,
          "internalType": "address"
        },
        {
          "name": "refundedAmount",
          "type": "uint256",
          "indexed": false,
          "internalType": "uint256"
        }
      ],
      "anonymous": false
    },
    {
      "type": "event",
      "name": "Upgraded",
      "inputs": [
        {
          "name": "implementation",
          "type": "address",
          "indexed": true,
          "internalType": "address"
        }
      ],
      "anonymous": false
    },
    {
      "type": "error",
      "name": "AddressEmptyCode",
      "inputs": [
        {
          "name": "target",
          "type": "address",
          "internalType": "address"
        }
      ]
    },
    {
      "type": "error",
      "name": "AddressInsufficientBalance",
      "inputs": [
        {
          "name": "account",
          "type": "address",
          "internalType": "address"
        }
      ]
    },
    {
      "type": "error",
      "name": "ERC1967InvalidImplementation",
      "inputs": [
        {
          "name": "implementation",
          "type": "address",
          "internalType": "address"
        }
      ]
    },
    {
      "type": "error",
      "name": "ERC1967NonPayable",
      "inputs": []
    },
    {
      "type": "error",
      "name": "FailedInnerCall",
      "inputs": []
    },
    {
      "type": "error",
      "name": "InvalidInitialization",
      "inputs": []
    },
    {
      "type": "error",
      "name": "NotInitializing",
      "inputs": []
    },
    {
      "type": "error",
      "name": "OwnableInvalidOwner",
      "inputs": [
        {
          "name": "owner",
          "type": "address",
          "internalType": "address"
        }
      ]
    },
    {
      "type": "error",
      "name": "OwnableUnauthorizedAccount",
      "inputs": [
        {
          "name": "account",
          "type": "address",
          "internalType": "address"
        }
      ]
    },
    {
      "type": "error",
      "name": "SafeERC20FailedOperation",
      "inputs": [
        {
          "name": "token",
          "type": "address",
          "internalType": "address"
        }
      ]
    },
    {
      "type": "error",
      "name": "UUPSUnauthorizedCallContext",
      "inputs": []
    },
    {
      "type": "error",
      "name": "UUPSUnsupportedProxiableUUID",
      "inputs": [
        {
          "name": "slot",
          "type": "bytes32",
          "internalType": "bytes32"
        }
      ]
    }
  ],
  "bytecode": {
    "object": "0x60a060405230608052348015601357600080fd5b50608051611d2761003d6000396000818161111a0152818161114301526112840152611d276000f3fe6080604052600436106100e85760003560e01c80638da5cb5b1161008a578063bbde537411610059578063bbde537414610291578063c5a929ee146102b1578063cd6dc687146102d1578063f2fde38b146102f157600080fd5b80638da5cb5b146101f05780638dba04451461021d578063a82f2e261461023d578063ad3cb1cc1461025357600080fd5b80634f1ef286116100c65780634f1ef2861461018557806352d1902d14610198578063715018a6146101bb5780638c3bfb1c146101d057600080fd5b80632dd6b841146100ed578063409262f01461010f57806343b938c514610145575b600080fd5b3480156100f957600080fd5b5061010d610108366004611832565b610311565b005b34801561011b57600080fd5b5061012f61012a366004611832565b6105db565b60405161013c919061184b565b60405180910390f35b34801561015157600080fd5b506101756101603660046118f6565b60026020526000908152604090205460ff1681565b604051901515815260200161013c565b61010d610193366004611927565b6106d7565b3480156101a457600080fd5b506101ad6106f6565b60405190815260200161013c565b3480156101c757600080fd5b5061010d610713565b3480156101dc57600080fd5b5061010d6101eb3660046119ff565b610727565b3480156101fc57600080fd5b5061020561075a565b6040516001600160a01b03909116815260200161013c565b34801561022957600080fd5b5061010d610238366004611a36565b610788565b34801561024957600080fd5b506101ad60005481565b34801561025f57600080fd5b50610284604051806040016040528060058152602001640352e302e360dc1b81525081565b60405161013c9190611adb565b34801561029d57600080fd5b5061010d6102ac366004611832565b610bec565b3480156102bd57600080fd5b5061010d6102cc366004611b0e565b610c4a565b3480156102dd57600080fd5b5061010d6102ec366004611b63565b610f57565b3480156102fd57600080fd5b5061010d61030c3660046118f6565b61106d565b60008181526003602081905260409091209081015461036f5760405162461bcd60e51b81526020600482015260156024820152741b9bc81c185e5b595b9d081c1b185b88199bdd5b99605a1b60448201526064015b60405180910390fd5b80600701548160060154106103c65760405162461bcd60e51b815260206004820152601b60248201527f616c6c207061796d656e74732068617665206265656e206d61646500000000006044820152606401610366565b805460ff16156104185760405162461bcd60e51b815260206004820152601b60248201527f7061796d656e742068617320616c72656164792073746f7070656400000000006044820152606401610366565b600081600601546201518061042d9190611ba3565b826005015461043c9190611bba565b905060006201518061044e8342611bcd565b6104589190611be0565b9050600081116104b45760405162461bcd60e51b815260206004820152602160248201527f6e6f74207965742074696d6520666f7220746865206e657874207061796d656e6044820152601d60fa1b6064820152608401610366565b600083600701548285600601546104cb9190611bba565b116104d657816104ea565b836006015484600701546104ea9190611bcd565b9050600084600701548286600601546105039190611bba565b1461051d578185600401546105189190611ba3565b610540565b846004015485600601546105319190611ba3565b85600301546105409190611bcd565b9050818560060160008282546105569190611bba565b90915550506001850154600286015461057c916001600160a01b039182169116836110ab565b6001850154855460068701546040519081526001600160a01b03928316926101009092049091169088907fbcba480da076624fb6b1f17e68822669282dd4845192d1753fede9d7b77247a09060200160405180910390a4505050505050565b61064760405180610120016040528060001515815260200160006001600160a01b0316815260200160006001600160a01b0316815260200160006001600160a01b0316815260200160008152602001600081526020016000815260200160008152602001600081525090565b50600090815260036020818152604092839020835161012081018552815460ff8116151582526001600160a01b0361010091829004811694830194909452600183015484169582019590955260028201549092166060830152918201546080820152600482015460a0820152600582015460c0820152600682015460e08201526007909101549181019190915290565b6106df61110f565b6106e8826111b4565b6106f282826111bc565b5050565b6000610700611279565b50600080516020611cd283398151915290565b61071b6112c2565b61072560006112f4565b565b61072f6112c2565b6001600160a01b03919091166000908152600260205260409020805460ff1916911515919091179055565b7f9016d09d72d40fdae2fd8ceac6b6234c7706214fd39c1cd1e609a0528c199300546001600160a01b031690565b6000548110156107da5760405162461bcd60e51b815260206004820152601760248201527f696e73756666696369656e74207369676e6174757265730000000000000000006044820152606401610366565b6000838152600360208190526040909120908101546108335760405162461bcd60e51b81526020600482015260156024820152741b9bc81c185e5b595b9d081c1b185b88199bdd5b99605a1b6044820152606401610366565b805460ff16156108855760405162461bcd60e51b815260206004820152601b60248201527f7061796d656e742068617320616c72656164792073746f7070656400000000006044820152606401610366565b6040805160038082526080820190925260009160208201606080368337019050508254815191925061010090046001600160a01b03169082906000906108cd576108cd611c02565b6001600160a01b039283166020918202929092010152600180840154835192169183919081106108ff576108ff611c02565b60200260200101906001600160a01b031690816001600160a01b03168152505061092761075a565b8160028151811061093a5761093a611c02565b60200260200101906001600160a01b031690816001600160a01b0316815250506000805b84811015610a9d5760008760405160200161098891815263053544f560e41b602082015260240190565b6040516020818303038152906040528051906020012090506000610a04828989868181106109b8576109b8611c02565b90506020028101906109ca9190611c18565b8080601f01602080910402602001604051908101604052809392919081815260200183838082843760009201919091525061136592505050565b905060005b8551811015610a9257858181518110610a2457610a24611c02565b60200260200101516001600160a01b0316826001600160a01b031603610a8a5784610a4e81611c66565b9550506000868281518110610a6557610a65611c02565b60200260200101906001600160a01b031690816001600160a01b031681525050610a92565b600101610a09565b50505060010161095e565b50600054811015610af05760405162461bcd60e51b815260206004820152601d60248201527f696e73756666696369656e742076616c6964207369676e6174757265730000006044820152606401610366565b604051632dd6b84160e01b8152600481018790523090632dd6b84190602401600060405180830381600087803b158015610b2957600080fd5b505af1925050508015610b3a575060015b50600083600401548460060154610b519190611ba3565b8460030154610b609190611bcd565b84546002860154919250610b86916001600160a01b0390811691610100900416836110ab565b835460ff19166001908117808655908501546040518381526001600160a01b039182169261010090049091169089907fe2594fc46ed1be0283ca274c566b020dd800bc3d913707a49f0701dc52bce222906020015b60405180910390a450505050505050565b610bf46112c2565b600081118015610c05575060038111155b610c455760405162461bcd60e51b81526020600482015260116024820152701a5b9d985b1a59081d1a1c995cda1bdb19607a1b6044820152606401610366565b600055565b6001600160a01b03831660009081526002602052604090205460ff16610cb25760405162461bcd60e51b815260206004820152601860248201527f63757272656e6379206e6f742077686974656c697374656400000000000000006044820152606401610366565b6001600160a01b03851660009081526001602052604081208054879187919084610cdb83611c66565b909155506040516bffffffffffffffffffffffff19606094851b811660208301529290931b9091166034830152604882015260680160408051601f1981840301815291905280516020909101209050610d3f6001600160a01b038516333086611435565b6000610d4b8385611be0565b905060008111610d9d5760405162461bcd60e51b815260206004820152601c60248201527f696e76616c6964206461696c792072656c6561736520616d6f756e74000000006044820152606401610366565b604051806101200160405280600015158152602001886001600160a01b03168152602001876001600160a01b03168152602001866001600160a01b0316815260200185815260200182815260200142815260200160008152602001848152506003600084815260200190815260200160002060008201518160000160006101000a81548160ff02191690831515021790555060208201518160000160016101000a8154816001600160a01b0302191690836001600160a01b0316021790555060408201518160010160006101000a8154816001600160a01b0302191690836001600160a01b0316021790555060608201518160020160006101000a8154816001600160a01b0302191690836001600160a01b031602179055506080820151816003015560a0820151816004015560c0820151816005015560e082015181600601556101008201518160070155905050856001600160a01b0316876001600160a01b0316837ff4d4e0ebbedb91e04aaa82d7f1a962fb8f86b8d0ee86d1d59c66321895f1cfbc88878987604051610bdb94939291906001600160a01b0394909416845260208401929092526040830152606082015260800190565b7ff0c57e16840df040f15088dc2f81fe391c3923bec73e23a9662efc9c229c6a008054600160401b810460ff16159067ffffffffffffffff16600081158015610f9d5750825b905060008267ffffffffffffffff166001148015610fba5750303b155b905081158015610fc8575080155b15610fe65760405163f92ee8a960e01b815260040160405180910390fd5b845467ffffffffffffffff19166001178555831561101057845460ff60401b1916600160401b1785555b61101987611474565b6000869055831561106457845460ff60401b19168555604051600181527fc7f505b2f371ae2175ee4913f4499e1f2633a7b5936321eed1cdaeb6115181d29060200160405180910390a15b50505050505050565b6110756112c2565b6001600160a01b03811661109f57604051631e4fbdf760e01b815260006004820152602401610366565b6110a8816112f4565b50565b6040516001600160a01b0383811660248301526044820183905261110a91859182169063a9059cbb906064015b604051602081830303815290604052915060e01b6020820180516001600160e01b038381831617835250505050611485565b505050565b306001600160a01b037f000000000000000000000000000000000000000000000000000000000000000016148061119657507f00000000000000000000000000000000000000000000000000000000000000006001600160a01b031661118a600080516020611cd2833981519152546001600160a01b031690565b6001600160a01b031614155b156107255760405163703e46dd60e11b815260040160405180910390fd5b6110a86112c2565b816001600160a01b03166352d1902d6040518163ffffffff1660e01b8152600401602060405180830381865afa925050508015611216575060408051601f3d908101601f1916820190925261121391810190611c7f565b60015b61123e57604051634c9c8ce360e01b81526001600160a01b0383166004820152602401610366565b600080516020611cd2833981519152811461126f57604051632a87526960e21b815260048101829052602401610366565b61110a83836114e8565b306001600160a01b037f000000000000000000000000000000000000000000000000000000000000000016146107255760405163703e46dd60e11b815260040160405180910390fd5b336112cb61075a565b6001600160a01b0316146107255760405163118cdaa760e01b8152336004820152602401610366565b7f9016d09d72d40fdae2fd8ceac6b6234c7706214fd39c1cd1e609a0528c19930080546001600160a01b031981166001600160a01b03848116918217845560405192169182907f8be0079c531659141344cd1fd0a4f28419497f9722a3daafe3b4186f6b6457e090600090a3505050565b6040517f19457468657265756d205369676e6564204d6573736167653a0a3332000000006020820152603c81018390526000908190605c0160405160208183030381529060405280519060200120905060008060006113c38661153e565b60408051600081526020810180835289905260ff8316918101919091526060810184905260808101839052929550909350915060019060a0016020604051602081039080840390855afa15801561141e573d6000803e3d6000fd5b505050602060405103519450505050505b92915050565b6040516001600160a01b03848116602483015283811660448301526064820183905261146e9186918216906323b872dd906084016110d8565b50505050565b61147c6115b0565b6110a8816115f9565b600061149a6001600160a01b03841683611601565b905080516000141580156114bf5750808060200190518101906114bd9190611c98565b155b1561110a57604051635274afe760e01b81526001600160a01b0384166004820152602401610366565b6114f182611616565b6040516001600160a01b038316907fbc7cd75a20ee27fd9adebab32041f755214dbc6bffa90cc0225b39da2e5c2d3b90600090a28051156115365761110a828261167b565b6106f26116f1565b600080600083516041146115945760405162461bcd60e51b815260206004820152601860248201527f696e76616c6964207369676e6174757265206c656e67746800000000000000006044820152606401610366565b50505060208101516040820151606083015160001a9193909250565b7ff0c57e16840df040f15088dc2f81fe391c3923bec73e23a9662efc9c229c6a0054600160401b900460ff1661072557604051631afcd79f60e31b815260040160405180910390fd5b6110756115b0565b606061160f83836000611710565b9392505050565b806001600160a01b03163b60000361164c57604051634c9c8ce360e01b81526001600160a01b0382166004820152602401610366565b600080516020611cd283398151915280546001600160a01b0319166001600160a01b0392909216919091179055565b6060600080846001600160a01b0316846040516116989190611cb5565b600060405180830381855af49150503d80600081146116d3576040519150601f19603f3d011682016040523d82523d6000602084013e6116d8565b606091505b50915091506116e88583836117ad565b95945050505050565b34156107255760405163b398979f60e01b815260040160405180910390fd5b6060814710156117355760405163cd78605960e01b8152306004820152602401610366565b600080856001600160a01b031684866040516117519190611cb5565b60006040518083038185875af1925050503d806000811461178e576040519150601f19603f3d011682016040523d82523d6000602084013e611793565b606091505b50915091506117a38683836117ad565b9695505050505050565b6060826117c2576117bd82611809565b61160f565b81511580156117d957506001600160a01b0384163b155b1561180257604051639996b31560e01b81526001600160a01b0385166004820152602401610366565b508061160f565b8051156118195780518082602001fd5b604051630a12f52160e11b815260040160405180910390fd5b60006020828403121561184457600080fd5b5035919050565b8151151581526020808301516001600160a01b031690820152604080830151610120830191611884908401826001600160a01b03169052565b50606083015161189f60608401826001600160a01b03169052565b506080830151608083015260a083015160a083015260c083015160c083015260e083015160e083015261010083015161010083015292915050565b80356001600160a01b03811681146118f157600080fd5b919050565b60006020828403121561190857600080fd5b61160f826118da565b634e487b7160e01b600052604160045260246000fd5b6000806040838503121561193a57600080fd5b611943836118da565b9150602083013567ffffffffffffffff81111561195f57600080fd5b8301601f8101851361197057600080fd5b803567ffffffffffffffff81111561198a5761198a611911565b604051601f8201601f19908116603f0116810167ffffffffffffffff811182821017156119b9576119b9611911565b6040528181528282016020018710156119d157600080fd5b816020840160208301376000602083830101528093505050509250929050565b80151581146110a857600080fd5b60008060408385031215611a1257600080fd5b611a1b836118da565b91506020830135611a2b816119f1565b809150509250929050565b600080600060408486031215611a4b57600080fd5b83359250602084013567ffffffffffffffff811115611a6957600080fd5b8401601f81018613611a7a57600080fd5b803567ffffffffffffffff811115611a9157600080fd5b8660208260051b8401011115611aa657600080fd5b939660209190910195509293505050565b60005b83811015611ad2578181015183820152602001611aba565b50506000910152565b6020815260008251806020840152611afa816040850160208701611ab7565b601f01601f19169190910160400192915050565b600080600080600060a08688031215611b2657600080fd5b611b2f866118da565b9450611b3d602087016118da565b9350611b4b604087016118da565b94979396509394606081013594506080013592915050565b60008060408385031215611b7657600080fd5b611b7f836118da565b946020939093013593505050565b634e487b7160e01b600052601160045260246000fd5b808202811582820484141761142f5761142f611b8d565b8082018082111561142f5761142f611b8d565b8181038181111561142f5761142f611b8d565b600082611bfd57634e487b7160e01b600052601260045260246000fd5b500490565b634e487b7160e01b600052603260045260246000fd5b6000808335601e19843603018112611c2f57600080fd5b83018035915067ffffffffffffffff821115611c4a57600080fd5b602001915036819003821315611c5f57600080fd5b9250929050565b600060018201611c7857611c78611b8d565b5060010190565b600060208284031215611c9157600080fd5b5051919050565b600060208284031215611caa57600080fd5b815161160f816119f1565b60008251611cc7818460208701611ab7565b919091019291505056fe360894a13ba1a3210667c828492db98dca3e2076cc3735a920a3ca505d382bbca264697066735822122082984f7b36e8876b61d87d9bad2834501aa3da31f287dc79d45e6b7589f3991e64736f6c634300081a0033",
    "linkReferences": {}
  },
  "methodIdentifiers": {
    "UPGRADE_INTERFACE_VERSION()": "ad3cb1cc",
    "createPaymentPlan(address,address,address,uint256,uint256)": "c5a929ee",
    "getPaymentPlan(bytes32)": "409262f0",
    "initialize(address,uint256)": "cd6dc687",
    "isCurrencyWhitelisted(address)": "43b938c5",
    "owner()": "8da5cb5b",
    "proxiableUUID()": "52d1902d",
    "releaseDailyPayment(bytes32)": "2dd6b841",
    "renounceOwnership()": "715018a6",
    "setSignatureThreshold(uint256)": "bbde5374",
    "signatureThreshold()": "a82f2e26",
    "stopPaymentPlan(bytes32,bytes[])": "8dba0445",
    "transferOwnership(address)": "f2fde38b",
    "upgradeToAndCall(address,bytes)": "4f1ef286",
    "whitelistCurrency(address,bool)": "8c3bfb1c"
  },
  "id": 55
}